:040000003DEF06F0DA
:08000800046ED8CF05F0E0CF33
:1000100006F00001E9CF0CF0EACF07F0E1CF08F0DD
:10002000E2CF09F0D9CF0AF0DACF0BF0F3CF12F01C
:10003000F4CF13F0FACF14F0F5CF15F0F6CF16F099
:10004000F7CF17F000C00EF001C00FF002C010F0A3
:1000500003C011F09DA230EF00F09EB25DEF00F002
:10006000F2A636EF00F0F2B094EF00F00EC000F010
:100070000FC001F010C002F011C003F00CC0E9FF86
:1000800007C0EAFF078E08C0E1FF09C0E2FF0AC00F
:10009000D9FF0BC0DAFF12C0F3FF13C0F4FF14C086
:1000A000FAFF15C0F5FF16C0F6FF17C0F7FF0450A2
:1000B00006C0E0FF05C0D8FF10007450742A310854
:1000C00002E2746A64806550765C03E2762A818875
:1000D00001D081987550752A130802E2766A756A14
:1000E0009E9236EF00F094968B9694988B9882901F
:1000F000A06BA0510F0805E3828682868296A02B12
:10010000F8D7A16BA06BA05107080AE3D890A137DC
:1001100082AA01D0A181828682868296A02BF3D703
:100120008280A1C001F0000C81BA1BD064B219D04A
:10013000DADF01C09FF09F51520802E1726A01D0DC
:10014000722A7250080804E264820A0E726E09D0A4
:10015000036A7250680FE96E000E0320EA6E9FC0BA
:10016000EFFF81CF9EF0F290F29036EF00F0EA6A56
:100170007A0EE96EEF500DE00A0E016E006A002E55
:10018000FED7012EFBD75F0E006E002EFED7EF2E9E
:10019000F3D7000C140E7A6EEADFC290C150C00B88
:1001A0000F09C16EFC0E926EE00E936EA00E946E5F
:1001B000806AE00E816EF80E826EF19E8282640E7D
:1001C0007A6ED5DF81CF78F0F290CD6A480E0509BE
:1001D000CA6EC40ECB6E9D82F286C00EF21281866C
:1001E00081848182818080828080020E796EAF0E50
:1001F0007A6EBDDF792EFBD78196819481928190B2
:1002000080928090030E796EFA0E7A6EB0DF792EAE
:10021000FBD7666A656A82946CEF06F094869488D0
:100220006EEF06F08296829694988B88020E006E8E
:10023000002EFED700008286828640EF01F0829673
:10024000829694988B98020E006E002EFED70000C6
:100250008286828640EF01F0100E896F94968B960D
:10026000829089518907000A0FE0000B006E8851C7
:10027000800B036E0050031002E0D4D701D0DFD70B
:10028000D89087378837EDD782968280000C82809D
:1002900094988B8894968B96800E886FD80E876F73
:1002A000DBDF820E886FD80E876FD6DFA60E886FD1
:1002B000400E876FD1DFC60E886F470E876FCCDF89
:1002C000940E886FA00E876FC7DFC20E886FAC0ECA
:1002D000876FC2DFCC0E886F770E876FBDDFCA0EC7
:1002E000886F800E876FB8DFCA0E886F830E876FA6
:1002F000B3DFC40E886F9B0E876FAEDF980E886FDA
:10030000500E876FA9DFE00E886F876BA5DFC80EE0
:10031000886F876BA1DFC00E886F876B9DDFCA0E69
:10032000886F800E876F98DFCA0E886F830E876F85
:1003300093DF196AF2BE198EF29ED5DE19BEF28ED7
:1003400070EF06F0080E016E0A0E006E002EFED74A
:100350008B9694960B0E006E002EFED78B378B98E3
:10036000D8B09488D8A09498948682A6FED7012EFF
:10037000EBD70A0E006E002EFED78B9694960000E7
:1003800094880B0E006E002EFED70B0E006E002E12
:10039000FED7948682A6FED7016A0B0E006E002E51
:1003A000FED782B801808B9694968B989498000C17
:1003B00094880A0E006E002EFED794860B0E006EF7
:1003C000002EFED78B9894980A0E006E002EFED752
:1003D0008B9694963A0E8B6FB5DF01508A9101B0DF
:1003E0008A8194980000948682A6FED70A0E006E39
:1003F000002EFED700D0000094880A0E006E002E5A
:10040000FED7000E8AA1010E016E000C080E8B6F44
:1004100000C08CF094880B0E006E002EFED79486E0
:1004200082A6FED782B8D88082A8D89001360A0E5C
:10043000006E002EFED794968B968B2FEBD7948868
:100440000B0E006E002EFED78B988C51D8A494987A
:100450000000948682A6FED70A0E006E002EFED7FC
:100460008B9694960B0E006E002EFED78B98949868
:10047000000C9EDF0152FDE094880A0E006E002EF3
:10048000FED794860B0E006E002EFED78B989498A4
:100490000A0E006E002EFED78B9694963A0E8B6F46
:1004A00051DF7BC08BF04EDF94880A0E006E002E69
:1004B000FED794860B0E006E002EFED782A6FED7C6
:1004C0008B9894980A0E006E002EFED78B96949609
:1004D0003B0E8B6F37DF006A99DF01C07CF0949888
:1004E0000000948682A6FED70A0E006E002EFED76C
:1004F00000D0000094880A0E006E002EFED77CC04B
:1005000001F0000C55DF0152FDE094880A0E006EE8
:10051000002EFED794860B0E006E002EFED78B9811
:1005200094980A0E006E002EFED78B9694963A0E83
:100530008B6F08DF7CC08BF005DF7DC08BF002DFA6
:1005400094980000948682A6FED70A0E006E002EB4
:10055000FED700D0000094880A0E006E002EFED751
:10056000000C2A0E7B6E85DF01C07AF07A50FE0BFC
:100570007B6E2A0E7C6E7BC07DF0C4DFD0EF02F074
:100580002A0E7B6E76DF01C07AF07A5001097B6E0D
:100590002A0E7C6E7BC07DF0B5DF09EF03F0E1D75A
:1005A0007850020806E07850040803E07850080804
:1005B0000BE178307A6E7A323F0E7A160E0E7C6E30
:1005C0007AC07DF09FDF04D00E0E7C6E7D6A9ADFCC
:1005D0002A0E7B6E4EDF0150C70B7A6E2A0E7C6EA0
:1005E0007AC07DF08FDF7950070812E32A0E7B6E08
:1005F00040DF01C07AF07934006E00360036F80E24
:10060000001600507A122A0E7C6E7AC07DF07ADFD6
:10061000B7D77DEF06F0CCDE0152FDE094880A0EDC
:10062000006E002EFED794860B0E006E002EFED7B5
:100630008B9894980A0E006E002EFED78B96949697
:100640003A0E8B6F7FDE84C08BF07CDE94880A0EBE
:10065000006E002EFED794860B0E006E002EFED785
:1006600082A6FED78B9894980A0E006E002EFED7B5
:100670008B9694963B0E8B6F65DE886B010E855DC5
:10068000885D10E2010E006EC1DE01C089F0036AD0
:1006900088518625E96E87510320EA6E89C0EFFFF5
:1006A000882BECD7006AB2DE01C089F09498000074
:1006B000948682A6FED70A0E006E002EFED700D0CA
:1006C000000094880A0E006E002EFED7036A88513F
:1006D0008625E96E87510320EA6E89C0EFFF79EF26
:1006E00003F0010E846F060E856F876B7C0E866F9C
:1006F00092D77A6A7B6A7A50050849E3036A7A508E
:100700007C0FE96E000E0320EA6EEF50036A826FE1
:1007100003C083F082C003F0000E826F03C083F039
:10072000010E7A24036A7C0FE96E000E0320EA6E44
:10073000EF5082138331036E8231026E0332023234
:1007400003320232033202320F0E031602C082F06D
:1007500003C083F0036A7A507C0FE96E000E032019
:10076000EA6EEF507F0802E2F00E8327D8907B34C8
:10077000036A7824E96E79500320EA6E83C0ECFFA7
:10078000ED5282C0EFFF020E7A267B2AB4D7000C0E
:10079000D8B203D0EA6A980EE96E93519719800B8C
:1007A0009D6F93AF0BD0901F911F921F931F902BA3
:1007B000D8B4912BD8B4922BD8B4932B97AF0BD03D
:1007C000941F951F961F971F942BD8B4952BD8B4C0
:1007D000962BD8B4972B006A016A026A036A986B59
:1007E000996B9A6B9B6B97519611951194112CE014
:1007F000200E9C6FD8909037913792379337983767
:1008000099379A379B3797519B5D08E196519A5DCE
:1008100005E19551995D02E19451985D0FE3945182
:10082000985F9551D8A0953D995F9651D8A0963D77
:100830009A5F9751D8A0973D9B5FD88000360136CC
:10084000023603369C2FD6D79DAF0BD0001E011E5B
:10085000021E031E002AD8B4012AD8B4022AD8B432
:10086000032A98C0EFFF99C0ECFF9AC0ECFF9BC031
:10087000ECFF000C010E845D856F896B886B876BC4
:10088000866B85535CE08551040DF350036A822525
:10089000016E8351032201C08AF003C08BF0010E68
:1008A000855D040DF350036A8225E96E83510320B0
:1008B000EA6EEFCF00F0ECCF01F0ECCF02F0ECCF1E
:1008C00003F08BC0EAFF8AC0E9FF00C0EFFF01C060
:1008D000ECFF02C0ECFF03C0ECFF8551040DF350A8
:1008E000036A8225E96E83510320EA6EEFCF8AF016
:1008F000ECCF8BF0ECCF8CF0ECCF8DF0EACF8FF01B
:10090000E9CF8EF0D8928DC093F08CC092F08BC05E
:1009100091F08AC090F0976B966B956B84C094F0C1
:1009200037DF8FC0EAFF8EC0E9FF005086270150F5
:10093000872302508823035089238507A2D782C0CA
:10094000E9FF83C0EAFF7EC0EFFF7FC0ECFF80C0FD
:10095000ECFF81C0ECFFD89281C093F080C092F090
:100960007FC091F07EC090F0976B966B956B84C0C2
:1009700094F00EDF00508627015087230250882311
:100980000350892386C000F087C001F088C002F0C0
:1009900089C003F0000C6650010A06E0030A43E038
:1009A000020AD8B47ED080D0796A5E0E786E99DE65
:1009B000601E611E602AD8B4612A7B6A7A6A61C0AF
:1009C00079F060C078F061AE02D07A067B067D6A6D
:1009D0001A0E7BC081F07AC080F079C07FF078C0B9
:1009E0007EF07DC083F0826F100E846F43DF03C002
:1009F0005DF002C05CF001C05BF000C05AF05DBE6B
:100A000010D05D520AE15C5208E15B50010809E236
:100A1000FF0A03E15A50580804E2010E656E828411
:100A200001D0666A41D0796A5E0E786E5ADE601E29
:100A3000611E602AD8B4612A7B6A7A6A61C079F043
:100A400060C078F061AE02D07A067B067D6A1A0E2D
:100A50007BC081F07AC080F079C07FF078C07EF0F2
:100A60007DC083F0826F100E846F04DF03C05DF0E1
:100A700002C05CF001C05BF000C05AF05DBE0BD05C
:100A80005D520DE15C520BE15B50030808E303E1AA
:100A90005A50D30804E3020E656E828401D0666A60
:100AA00003D0656A829400D0B2EF06F08190662C84
:100AB00001D081808192665201E1818281946650E9
:100AC000020801E181848196B3EF06F0786A81BE65
:100AD00002D0020E786E81AC782A7350785C12E0F6
:100AE00078C073F080908092785005E0010A04E0AD
:100AF000030A05E007D006D0010E666E03D0020E91
:100B0000666E00D0B4EF06F0FF0E8B6F8A6F8951CE
:100B10008907000A27E08851036E8751872BD8B4D4
:100B2000882BE96E03C0EAFFEFCF8CF08CC08DF00C
:100B30008E6B8E51070815E38D518A19906F905175
:100B4000010B8F91E8B08F81D8908B338A338FA1BE
:100B500004D0010E8A1BA00E8B1BD8908D338E2BD8
:100B6000E8D7D5D78AC001F08BC002F0F2EF05F0CC
:100B700064A281D0786A7850070819E3036A785034
:100B80007D0F016E000E032203C088F0036A7850C7
:100B9000680FE96E000E0320EA6EEFCF89F088C07F
:100BA000EAFF01C0E9FF89C0EFFF782AE4D7CA0E47
:100BB000886F800E876F2CEC01F0CA0E886F830E51
:100BC000876F2CEC01F0196AF2BE198EF29E73EC5D
:100BD00000F019BEF28E6492886B7D0E876F060E50
:100BE000896F92D702C07CF001C07BF07BC079F0A6
:100BF0007CC07AF07E50A00822E17F5030081FE1CF
:100C00008051B0081CE18151310819E17950835DB0
:100C100016E17A50845D13E18251310A03E0030A40
:100C200006E00AD080908082020E666E08D0808036
:100C30008092010E666E03D08090809200D0786A18
:100C40007850070818E3036A78507D0F016E000E94
:100C5000032203C088F0036A7850680FE96E000E23
:100C60000320EA6EEF6A000E88C0EAFF01C0E9FFC8
:100C7000EF6E782AE5D7B5EF06F0F86AD09E078EBA
:100C8000EA6AE96A700ED36E400E9B6ED350C15073
:100C9000C00B0F09C16E070EB46E5A6A5B6A5C6ABC
:100CA0005D6A64906492656A666A676A686A696A7E
:100CB0006A6A6B6A6C6A6D6A6E6A6F6A706A716A78
:100CC000726A736A746A756A766A700ED36E400EC1
:100CD0009B6ED350CAEF00F00EEF01F047EF01F02A
:100CE0000D0E7B6E39EC02F001C077F077502A08C8
:100CF00004E1020E786E796A52D4776A77500F0851
:100D00002DE3796A5E0E786EECDC601E611E602A4F
:100D1000D8B4612A7B6A7A6A61C079F060C078F0E1
:100D200061AE02D07A067B067D6A1A0E7BC081F026
:100D30007AC080F079C07FF078C07EF07DC083F00B
:100D4000826F100E846F96DD03C05DF002C05CF010
:100D500001C05BF000C05AF0772AD0D764A004D05D
:0E0D6000649019D6A3D6B2D603D7F8D70300F5
:020000040030CA
:0E00000000C81E1E0087810000800FE00F4028
:00000001FF
;PIC18F2520
;CRC=D3FD  CREATED="21-Dec-12 09:36"
