:0400000090EF08F085
:08000800046ED8CF05F0E0CF33
:1000100006F00001E9CF0CF0EACF07F0E1CF08F0DD
:10002000E2CF09F0D9CF0AF0DACF0BF0F3CF12F01C
:10003000F4CF13F0FACF14F0F5CF15F0F6CF16F099
:10004000F7CF17F000C00EF001C00FF002C010F0A3
:1000500003C011F09DA230EF00F09EB2F0EF01F06E
:100060009DAA36EF00F09EBA07EF02F00EC000F036
:100070000FC001F010C002F011C003F00CC0E9FF86
:1000800007C0EAFF078E08C0E1FF09C0E2FF0AC00F
:10009000D9FF0BC0DAFF12C0F3FF13C0F4FF14C086
:1000A000FAFF15C0F5FF16C0F6FF17C0F7FF0450A2
:1000B00006C0E0FF05C0D8FF1000C80FF66E000EA6
:1000C000F7220900F55012002020202020202020B7
:1000D0002020202020002020202020202020202040
:1000E0002020200020202020202020202020202030
:1000F0002000202020202020202020202020200040
:10010000202020202020202020202020200020200F
:1001100020202020202020202020200020202020FF
:1001200020202020202020202000202020202020EF
:1001300020202020202020002020202020202020DF
:1001400020202020200020202020202020202020CF
:1001500020202000202020202020202020202020BF
:1001600020002020202020202020202020202000CF
:10017000202020202020202020202020200020209F
:10018000202020202020202020202000202020208F
:10019000202020202020202020002020202020207F
:1001A000202020202020200020202020202020206F
:1001B000202020202000202020202020202020205F
:1001C000202020002020202020202020202020204F
:1001D000200020202020202020202020202020005F
:1001E000202020202020202020202020200020202F
:1001F000202020202020202020202000202020201F
:10020000202020202020202020002020202020200E
:1002100020202020202020005265616C54696D65EB
:10022000204D656E7500536176652032204545503E
:10023000524F4D00F76A440FF66E020EF722090086
:10024000F5501200456E7465722056616C00456E63
:100250007465722056616C00456E7465722056613B
:100260006C00456E7465722056616C00456E746555
:10027000722056616C00456E7465722056616C0088
:10028000456E7465722056616C00456E746572200F
:1002900056616C00456E7465722056616C00456E47
:1002A0007465722056616C00456E746572205661EB
:1002B0006C00456E7465722056616C00456E746505
:1002C000722056616C00456E7465722056616C0038
:1002D000456E7465722056616C00456E74657220BF
:1002E00056616C00456E7465722056616C00456EF7
:1002F0007465722056616C00456E7465722056619B
:100300006C00456E7465722056616C00456E7465B4
:10031000722056616C00456E7465722056616C00E7
:10032000456E7465722056616C00456E746572206E
:1003300056616C000A0D2020202020542D54657336
:10034000742C202020207370632D6D656E752773CB
:100350000D0A0A0020202D3E202573200000203D9C
:100360003E2000000D0A0A2020202A2A2A20526F4F
:10037000627320536861646573202573202A2A2ADA
:100380000D0A0000312E303000000D0A2020202000
:1003900020456E7465722023203E00000D0A202047
:1003A000202020004D4D41383435325120697320D2
:1003B0006F6E6C696E652E2E2E0D0A00436F756C84
:1003C00064206E6F7420636F6E6E65637420746F4B
:1003D000204D4D4138343532513A2030782558007F
:1003E0005750572A310802E2576A2B802C50595C2B
:1003F00003E2592A818801D081985850582A13085D
:1004000002E2596A586A2B829E9236EF00F09EAA49
:1004100015D0AB50060B02E0AB98AB88AECF79F0AD
:100420003E503E2A036A2E0FE96E000E0320EA6E4C
:1004300079C0EFFF3E500F0801E23E6A9E9A36EF08
:1004400000F0EA6A5C0EE96EEF500DE00A0E016EF4
:10045000006A002EFED7012EFBD75F0E006E002E25
:10046000FED7EF2EF3D7000C5E6603D05F6602D096
:1004700007D05F2A5DC0EEFF5E2EFCD75F2EFAD755
:1004800053EF02F05FC0A9FFA69EA69CA680A8CF4E
:1004900001F069EF02F0EA6A1F0EE96E5D6A5F6AB9
:1004A000020E5E6EE1D75C6A5B6A5C521CE15B50D7
:1004B000010819E35E6A1F0E5D6E5B505D24016EDC
:1004C0005C505E20036E01C05DF05E6E5BC05FF04D
:1004D000D9D75EC0EAFF5DC0E9FF01C0EFFF5B2A2C
:1004E000D8B45C2AE2D7CBEF02F0510E1F6E010E9A
:1004F000206E000C7890F2BE7880F29E76C0A9FF44
:1005000077C0A8FFA69EA69CA684550EA76EAA0E2D
:10051000A76EA682A6A201D0FDD7A694F29E78B0BF
:10052000F28EAAEF02F0746A7450010815E3766A3D
:100530001F0E756E74507524016E000E7620036ECA
:1005400001C0E9FFEA6EEFCF75F074C076F075C0B8
:1005500077F0D0D7742AE8D7000C140E5C6E71DFE8
:10056000C290C150C00B0F09C16EFC0E926EE00E1E
:10057000936EA00E946E806A816AF80E826EF19E70
:100580008282640E5C6E5DDFCD6A480E0509CA6E1C
:10059000C40ECB6E80D71F50510805E0A6DFC3DF25
:1005A000640E5C6E4EDF9D829D8AC00EF2128186C3
:1005B00081848182818080828080020E5B6EAF0E9A
:1005C0005C6E3FDF5B2EFBD7819681948192819098
:1005D00080928090030E5B6EFA0E5C6E32DF5B2EB3
:1005E000FBD72D6A2C6A8294DFEF08F08296829600
:1005F00094988B88020E006E002EFED70000828633
:10060000828623EF03F08296829694988B98020E4E
:10061000006E002EFED700008286828623EF03F054
:10062000100E5D6E829682905D505D06000A0FE0AE
:10063000000B006E5C50800B036E0050031002E054
:10064000D5D701D0E0D7D8905B365C36EDD782960F
:100650008280000C828094988B888296800E5C6EDB
:10066000D80E5B6EDDDF820E5C6E080E5B6ED8DF2F
:10067000A60E5C6E400E5B6ED3DFC60E5C6E470E40
:100680005B6ECEDFCC0E5C6E770E5B6EC9DF940EB8
:100690005C6EA00E5B6EC4DFC20E5C6EAC0E5B6E59
:1006A000BFDFCA0E5C6E800E5B6EBADFCA0E5C6E78
:1006B000830E5B6EB5DFC40E5C6E9B0E5B6EB0DFAF
:1006C000980E5C6E500E5B6EABDFE00E5C6E5B6A8C
:1006D000A7DFC80E5C6E0E0E5B6EA2DFC00E5C6EF6
:1006E0005B6A9EDFE1EF08F094869488E3EF08F000
:1006F000C69E9E966EC0C9FF020EC6BE05D09EA6BF
:10070000FED7000EC5BC010E016E000CC580C5B041
:10071000FED73A0E6E6EECDF01506D9001B06D8029
:10072000C584C5B4FED7000E6DA0010E016E000C8D
:10073000C69CC586C5B6FED700B0C59A00A0C58ABE
:10074000C588C5B8FED7C9CF01F0000CDFDF015264
:10075000FDE0C580C5B0FED73A0E6E6EC9DF5EC043
:100760006EF0C6DFC582C5B2FED73B0E6E6EC0DF2F
:10077000006ADEDF01C05FF0C584C5B4FED75FC08C
:1007800001F0000CC3DF0152FDE0C580C5B0FED70B
:100790003A0E6E6EADDF5FC06EF0AADF60C06EF025
:1007A000A7DFC584C5B4FED7000C2A0E5E6ECEDF6F
:1007B00001C05DF05D50FE0B5E6E2A0E5F6E5EC086
:1007C00060F0E0DFF4EF03F02A0E5E6EBFDF01C0E1
:1007D0005DF05D5001095E6E2A0E5F6E5EC060F0D6
:1007E000D1DF2DEF04F0E1D75B50020806E05B504B
:1007F000040803E05B5008080BE15B305D6E5D327E
:100800003F0E5D160E0E5F6E5DC060F0BBDF04D064
:100810000E0E5F6E606AB6DF2A0E5E6E97DF0150C5
:10082000C70B5D6E2A0E5F6E5DC060F0ABDF5C5083
:10083000070812E32A0E5E6E89DF01C05DF05C34AA
:10084000006E00360036F80E001600505D122A0EBB
:100850005F6E5DC060F096DFB7D7F5EF08F0090076
:10086000F5520DE0F6CF74F0F7CF75F0F5509EA875
:10087000FED7AD6E74C0F6FF75C0F7FFF0D7000C61
:100880000900F6CF70F0F7CF71F0F5509EA8FED7B3
:10089000AD6E70C0F6FF71C0F7FF6F2EF1D7000C80
:1008A0005CBE10D00F0E006E5B3800160A0E005CA6
:1008B00003E2300E002602D05C50002600509EA8B5
:1008C000FED7AD6E0F0E5B160A0E5B5C02E2300EB9
:1008D00002D05C9E5C505B265B509EA8FED7AD6E3E
:1008E0000AEF09F0405002080FE15550552A565CB6
:1008F0000BE2556A2450540A01E003D0200E246E06
:1009000003D0200E246E00D00FEF09F0FFDE01525D
:10091000FDE0C580C5B0FED73A0E6E6EE9DE67C059
:100920006EF0E6DEC582C5B2FED73B0E6E6EE0DE2F
:100930006B6A010E685C6B5C10E2010E006EF8DE03
:1009400001C06CF0036A6B506924E96E6A500320A1
:10095000EA6E6CC0EFFF6B2AECD7006AE9DE01C0DB
:100960006CF0C584C5B4FED7036A6B506924E96E88
:100970006A500320EA6E6CC0EFFFC7EF04F0010E6F
:10098000676E060E686E6A6A5F0E696EBFD75D6A33
:100990005E6A5D50050849E3036A5D505F0FE96ECA
:1009A000000E0320EA6EEF50036A656E03C066F026
:1009B00065C003F0000E656E03C066F0010E5D2495
:1009C000036A5F0FE96E000E0320EA6EEF506512B6
:1009D0006630036E6530026E033202320332023239
:1009E000033202320F0E031602C065F003C066F038
:1009F000036A5D505F0FE96E000E0320EA6EEF5050
:100A00007F0802E2F00E6626D8905E34036A5B240B
:100A1000E96E5C500320EA6E66C0ECFFED5265C0E3
:100A2000EFFF020E5D265E2AB4D7000C2D50010A9E
:100A300005E0030A1CE0020A32E034D05C6A250EAD
:100A40005B6E9DDF271E281E272AD8B4282A28BEC1
:100A50000CD02850010809E2FF0A03E1275058088A
:100A600004E2010E2C6E828401D02D6A1BD05C6AD8
:100A7000250E5B6E84DF271E281E272AD8B4282A5D
:100A800028BE07D02850030808E303E12750D30805
:100A900004E3020E2C6E828401D02D6A03D02C6AEE
:100AA000829400D010EF09F080902D2C01D080802E
:100AB00080922D50020801E1808281902D5201E147
:100AC000818081928194819611EF09F05B6A81BEE9
:100AD00002D0020E5B6E81AC5B2A54505B5C10E06E
:100AE0005BC054F05B5005E0010A04E0030A05E036
:100AF00007D006D0010E2D6E03D0020E2D6E00D051
:100B000012EF09F06450016A635C03E263C000F015
:100B10000CD0006A080E656E633600366450005CC7
:100B2000D8B0006E0136652EF7D7000C200E5EA8F7
:100B3000300E5F6E5DC000F05DAE07D0001E002A73
:100B400000C05DF02D0E5F6E5E8E01505DC063F0E3
:100B5000640E646ED7DF00C05DF0300E0124606E5D
:100B60005DC063F00A0E646ECDDF300E0024626E4D
:100B7000300E0124616E5FC000F05EA602D05EAE52
:100B80005E945EB80BD05EAE22D05EB420D000C0C2
:100B900060F05EB21CD000C061F019D0300E605C15
:100BA00016E100C060F0200E5F6E5EA604D05E9479
:100BB0005E825EAE5E92300E615C09E100C061F063
:100BC000200E606E5EA6F7D75E925EAE5E905EA46B
:100BD00004D05F509EA8FED7AD6E5EA204D06050D8
:100BE0009EA8FED7AD6E5EA004D061509EA8FED731
:100BF000AD6E62509EA8FED7AD6EBCEF06F06F5092
:100C00007102F3CF01F0F4CF00F07202F35000262E
:100C100070507102F3500020026E6DEF06F09EA836
:100C2000FED7AD6E000C42C0EAFF41C0E9FF74C0C0
:100C3000EFFFE92AD8B4EA2AEF6A412AD8B4422A57
:100C4000000C712C10D0705000D073C042F072C0F4
:100C500041F02E0E746EE7DF2E0E746EE4DF2E0E62
:100C6000746EE1DF1AD0406A72C0E9FF73C0EAFF18
:100C7000EF5213E07050220A05E0100A0BE0110A4F
:100C80000AE00BD0020E406E340EF66E030EF76EC5
:100C9000E6DD03D02ADC47DC00D0000CEF5210E088
:100CA000EACF70F0E9CF6FF0EF509EA8FED7AD6E9F
:100CB00070C0EAFF6FC0E9FFE92AD8B4EA2AEED78C
:100CC00094EF06F05E6A5E500D0819E3706A5DC02D
:100CD0006FF0726A0E0E716E92D702C070F001C092
:100CE0006FF05E506F24016E000E7020036E015095
:100CF00003C0F7FF5DEC00F092DF5E2AE4D70A0E36
:100D00005D246F6E706E010E716E736A5F0E726E8F
:100D100098DF540EF66E030EF76E050E6F6EB0DDA3
:100D2000EA6A5F0EE96EBAD7200E9EA8FED7AD6EB6
:100D3000000C640EF66E030EF76E160E6F6EA0DDDD
:100D4000840EF66E030EF76E8ADD7C0EF66E030ED1
:100D5000F76E060E6F6E94DD5B6A5B50190825E333
:100D60000A0E5B245C6E200E9EA8FED7AD6E5CC0A2
:100D70005DF01F0E5E6EDAD6290E9EA8FED7AD6E10
:100D8000200E9EA8FED7AD6E5BC05DF09BDF050E0A
:100D90005C6E21EC02F00D0E9EA8FED7AD6E0A0E21
:100DA0009EA8FED7AD6E5B2AD8D78A0EF66E030ECC
:100DB000F76E55DDFFEF06F03F503E5C02E1000E9E
:100DC00001D0010E016E000C5C6A3F503E5C0FE0EA
:100DD000036A3F502E0FE96E000E0320EA6EEFCF3C
:100DE0005CF0010E3F263F501008D8B43F6A5CC04B
:100DF00001F0000C405203E1010E406E9AD74050C2
:100E000002080FE1D9DF01520CE0DEDF01C024F05F
:100E10002450540A03E0740A02E003D002D0406A6E
:100E200000D016EF09F0006A016A6350D89064B0F0
:100E300000260032013264B200260032013264B46E
:100E400000260032013264B600260032013264B856
:100E500000260032013264BA00260032013264BC3E
:100E600000260032013264BE002600320132A5EFB6
:100E700007F0616A5F6A0A0E606E5E6A5C505D1020
:100E800003E1000E016EC1D06150612A036A5C2447
:100E9000E96E5D500320EA6EEFCF62F062502D08DC
:100EA0000DE1010E5F6E6150612A036A5C24E96EF8
:100EB0005D500320EA6EEFCF62F00DD062502B0838
:100EC0000AE16150612A036A5C24E96E5D500320E7
:100ED000EA6EEFCF62F062502F08D8B08ED0625029
:100EE0003908D8A08AD06250300821E1036A6150E5
:100EF0005C24E96E5D500320EA6EEF5078080AE04A
:100F0000036A61505C24E96E5D500320EA6EEF5085
:100F100058080DE1100E606E612A6150612A036A63
:100F20005C24E96E5D500320EA6EEFCF62F0605002
:100F30000A081BE162502F0817E26250390814E3D7
:100F40000A0E636E5EC064F06ED7300E625C0124E0
:100F50005E6E6150612A036A5C24E96E5D50032075
:100F6000EA6EEFCF62F0E6D748D06050100845E156
:100F70006250600806E262507A0803E36250DF0BB9
:100F800001D06250626E62502F0803E2625039084D
:100F900006E26250400831E2625046082EE3625099
:100FA0002F080CE26250390809E35E38636EF00ED8
:100FB0006316300E625C63245E6E09D05E38636E29
:100FC000F00E6316410E625C0A0F63245E6E615080
:100FD000612A036A5C24E96E5D500320EA6EEFCF5C
:100FE00062F06250600806E262507A0803E36250E1
:100FF000DF0B01D06250626EC6D75F2C04D0605008
:101000000A0801E15E6C5EC001F064EF08F05E6A00
:101010005E50090811E35D500A0DF350606A5F6E7F
:10102000036A5E505F24016E6050032201501AEC87
:1010300001F0F5DD5E2AECD75E0EF66E030EF76E5C
:101040000EDC84EF08F04050020801E167D0B4DE06
:10105000015201E163D0B8DE01C05BF05B500808CB
:101060000AE1535207E053065B50D9DD200ED7DD6D
:101070005B50D5DD15D05B501F0812E25B507E0837
:101080000FE353500E080CE35350532A036A430FE7
:10109000E96E000E0320EA6E5BC0EFFF5B50BFDD20
:1010A0005B500D0801E03AD0036A5350430FE96EDC
:1010B000000E0320EA6EEF6A536A4050010827E3EE
:1010C0005D6A430E5C6ED5D601C040F040502108E9
:1010D00008E240C070F0716A736A430E726EB1DD4F
:1010E00015D04050090811E29C0EF66E030EF76E03
:1010F0002FEC04F00A0E405C5C6E5D6EE3DD0A0EC0
:10110000405C5C6E5D6E83D701D0406A07D040C002
:1011100070F0716A736A430E726E93DD17EF09F017
:10112000F86AD09E078EEA6AE96A700ED36E400EA6
:101130009B6ED350B886A00EAF6E010EB06EA60E99
:10114000AC6E900EAB6E00000000948694884F0E3B
:10115000C86E280EC66EC78EC79C200E246E3E6ACF
:101160003F6A406A426A416A536A140E566EC15021
:10117000C00B0F09C16E070EB46E196A1A6A2B9064
:101180002B922C6A2D6A436A446A456A466A476A0A
:10119000486A496A4A6A4B6A4C6A4D6A4E6A4F6AA3
:1011A000506A516A526A546A556A576A586A596A4B
:1011B000700ED36E400E9B6ED350ADEF02F02AEF4F
:1011C00003F074EF03F0120E216E340E226E0D0E3A
:1011D0005E6EA6EC03F001C05AF05A502A080CE1EA
:1011E000020E5B6E5C6AF3EF03F0A40EF66E030E64
:1011F000F76E2FEC04F00ED0BC0EF66E030EF76EF9
:10120000210E6F6E40EC04F05AC05BF0370E5C6E3E
:1012100050EF04F02BA006D02B9072EF04F006D410
:1012200043D454D42BA203D02B92E4D50CD7F2D7BD
:021230000300B9
:020000040030CA
:0E00000000C91E1E0087810000800FE00F4027
:00000001FF
;PIC18F2520
;CRC=5939  CREATED="30-Aug-12 18:36"
