:04000000A1EF04F078
:08000800046ED8CF05F0E0CF33
:1000100006F00001E9CF0CF0EACF07F0E1CF08F0DD
:10002000E2CF09F0D9CF0AF0DACF0BF0F3CF12F01C
:10003000F4CF13F0FACF14F0F5CF15F0F6CF16F099
:10004000F7CF17F000C00EF001C00FF002C010F0A3
:1000500003C011F09DA230EF00F09EB257EF00F008
:100060000EC000F00FC001F010C002F011C003F08C
:100070000CC0E9FF07C0EAFF078E08C0E1FF09C016
:10008000E2FF0AC0D9FF0BC0DAFF12C0F3FF13C0B2
:10009000F4FF14C0FAFF15C0F5FF16C0F6FF17C035
:1000A000F7FF045006C0E0FF05C0D8FF10006750FE
:1000B000672A310802E2676A63806450695C03E280
:1000C000692A818801D081986850682A130802E261
:1000D000696A686A9E9230EF00F0EA6A6C0EE96E17
:1000E000EF500DE00A0E016E006A002EFED7012EC1
:1000F000FBD75F0E006E002EFED7EF2EF3D7000C5D
:10010000140E6C6EEADFC290C150C00B0F09C16EB5
:10011000FC0E926EE00E936EA00E946E806A816A61
:10012000F80E826EF19ECD6A480E0509CA6EC40EA5
:10013000CB6E9D82C00EF212818681848182818085
:1001400080828080020E6B6EAF0E6C6EC6DF6B2EEF
:10015000FBD7819681948192819080928090030E4A
:100160006B6EFA0E6C6EB9DF6B2EFBD7656A646A34
:100170008294C3EF04F094869488C5EF04F0080ECF
:10018000016E0A0E006E002EFED78B9694960B0E13
:10019000006E002EFED77E368B98D8B09488D8A0FB
:1001A0009498948682A6FED7012EEBD70A0E006E95
:1001B000002EFED78B969496000094880B0E006E4E
:1001C000002EFED70B0E006E002EFED7948682A660
:1001D000FED7016A0B0E006E002EFED782B801809A
:1001E0008B9694968B989498000C94880A0E006EC7
:1001F000002EFED794860B0E006E002EFED78B9835
:1002000094980A0E006E002EFED78B9694963A0EA6
:100210007E6EB5DF01507D9001B07D809498000026
:10022000948682A6FED70A0E006E002EFED700D05E
:10023000000094880A0E006E002EFED7000E7DA0EE
:10024000010E016E000C080E7E6E00C07FF09488D7
:100250000B0E006E002EFED7948682A6FED782B8C3
:10026000D88082A8D89001360A0E006E002EFED7E4
:1002700094968B967E2EEBD794880B0E006E002EF4
:10028000FED78B987F50D8A494980000948682A6BD
:10029000FED70A0E006E002EFED78B9694960B0E9C
:1002A000006E002EFED78B989498000C9EDF0152B2
:1002B000FDE094880A0E006E002EFED794860B0E89
:1002C000006E002EFED78B9894980A0E006E002EBA
:1002D000FED78B9694963A0E7E6E51DF6EC07EF0FE
:1002E0004EDF94880A0E006E002EFED794860B0E09
:1002F000006E002EFED782A6FED78B9894980A0E29
:10030000006E002EFED78B9694963B0E7E6E37DFE6
:10031000006A99DF01C06FF094980000948682A66D
:10032000FED70A0E006E002EFED700D00000948883
:100330000A0E006E002EFED76FC001F0000C55DFD4
:100340000152FDE094880A0E006E002EFED79486BE
:100350000B0E006E002EFED78B9894980A0E006E3E
:10036000002EFED78B9694963A0E7E6E08DF6FC0F5
:100370007EF005DF70C07EF002DF94980000948666
:1003800082A6FED70A0E006E002EFED700D0000017
:1003900094880A0E006E002EFED7000C2A0E6E6E98
:1003A00085DF01C06DF06D50FE0B6E6E2A0E6F6E14
:1003B0006EC070F0C4DFEDEF01F02A0E6E6E76DFD6
:1003C00001C06DF06D5001096E6E2A0E6F6E6EC029
:1003D00070F0B5DF26EF02F0E1D76B50020806E0BF
:1003E0006B50040803E06B5008080BE16B306D6E36
:1003F0006D323F0E6D160E0E6F6E6DC070F09FDF8A
:1004000004D00E0E6F6E706A9ADF2A0E6E6E4EDF8B
:100410000150C70B6D6E2A0E6F6E6DC070F08FDFCE
:100420006C50070812E32A0E6E6E40DF01C06DF0BB
:100430006C34006E00360036F80E001600506D1257
:100440002A0E6F6E6DC070F07ADFB7D7D1EF04F06F
:10045000CCDE0152FDE094880A0E006E002EFED71D
:1004600094860B0E006E002EFED78B9894980A0E81
:10047000006E002EFED78B9694963A0E7E6E7FDE2F
:1004800077C07EF07CDE94880A0E006E002EFED7C8
:1004900094860B0E006E002EFED782A6FED78B9898
:1004A00094980A0E006E002EFED78B9694963B0E03
:1004B0007E6E65DE7B6A010E785C7B5C10E2010E6D
:1004C000006EC1DE01C07CF0036A7B507924E96EC6
:1004D0007A500320EA6E7CC0EFFF7B2AECD7006ADB
:1004E000B2DE01C07CF094980000948682A6FED70C
:1004F0000A0E006E002EFED700D0000094880A0E6F
:10050000006E002EFED7036A7B507924E96E7A5084
:100510000320EA6E7CC0EFFF96EF02F0010E776ECB
:10052000060E786E7A6A6F0E796E92D76D6A6E6A71
:100530006D50050849E3036A6D506F0FE96E000EB8
:100540000320EA6EEF50036A756E03C076F075C043
:1005500003F0000E756E03C076F0010E6D24036A81
:100560006F0FE96E000E0320EA6EEF5075127630C1
:10057000036E7530026E03320232033202320332EE
:1005800002320F0E031602C075F003C076F0036A44
:100590006D506F0FE96E000E0320EA6EEF507F087A
:1005A00002E2F00E7626D8906E34036A6B24E96E70
:1005B0006C500320EA6E76C0ECFFED5275C0EFFF81
:1005C000020E6D266E2AB4D7000CD8B203D0EA6AA8
:1005D0008B0EE96E86518A19800B906F86AF0BD017
:1005E000831F841F851F861F832BD8B4842BD8B408
:1005F000852BD8B4862B8AAF0BD0871F881F891F05
:100600008A1F872BD8B4882BD8B4892BD8B48A2BCF
:10061000006A016A026A036A8B6B8C6B8D6B8E6B4E
:100620008A518911881187112CE0200E8F6FD89084
:1006300083378437853786378B378C378D378E37BE
:100640008A518E5D08E189518D5D05E188518C5D8F
:1006500002E187518B5D0FE387518B5F8851D8A0F2
:10066000883D8C5F8951D8A0893D8D5F8A51D8A083
:100670008A3D8E5FD88000360136023603368F2FD2
:10068000D6D790AF0BD0001E011E021E031E002AFB
:10069000D8B4012AD8B4022AD8B4032A8BC0EFFFF9
:1006A0008CC0ECFF8DC0ECFF8EC0ECFF000C010E87
:1006B000775C786E7C6A7B6A7A6A796A78525CE0E9
:1006C0007850040DF350036A7524016E76500322AE
:1006D00001C07DF003C07EF0010E785C040DF35084
:1006E000036A7524E96E76500320EA6EEFCF00F0BE
:1006F000ECCF01F0ECCF02F0ECCF03F07EC0EAFFCC
:100700007DC0E9FF00C0EFFF01C0ECFF02C0ECFFBD
:1007100003C0ECFF7850040DF350036A7524E96EB2
:1007200076500320EA6EEFCF7DF0ECCF7EF0ECCF79
:100730007FF0ECCF80F0EACF82F0E9CF81F0D89261
:1007400080C086F07FC085F07EC084F07DC083F0DD
:100750008A6B896B886B77C087F037DF82C0EAFFCE
:1007600081C0E9FF0050792601507A2202507B2295
:1007700003507C227806A2D775C0E9FF76C0EAFF55
:1007800071C0EFFF72C0ECFF73C0ECFF74C0ECFFF0
:10079000D89274C086F073C085F072C084F071C0C6
:1007A00083F08A6B896B886B77C087F00EDF00500F
:1007B000792601507A2202507B2203507C2279C094
:1007C00000F07AC001F07BC002F07CC003F0000CA6
:1007D0006550010A06E0030A43E0020AD8B47ED05D
:1007E00080D06C6A5D0E6B6E99DE5F1E601E5F2AA4
:1007F000D8B4602A6E6A6D6A60C06CF05FC06BF03E
:1008000060AE02D06D066E06706A190E6EC074F08E
:100810006DC073F06CC072F06BC071F070C076F098
:10082000756E100E776E43DF03C05CF002C05BF0A4
:1008300001C05AF000C059F05CBE10D05C520AE111
:100840005B5208E15A50010809E2FF0A03E15950DE
:10085000580804E2010E646E828401D0656A41D0BA
:100860006C6A5D0E6B6E5ADE5F1E601E5F2AD8B426
:10087000602A6E6A6D6A60C06CF05FC06BF060AE3B
:1008800002D06D066E06706A190E6EC074F06DC0EF
:1008900073F06CC072F06BC071F070C076F0756E62
:1008A000100E776E04DF03C05CF002C05BF001C085
:1008B0005AF000C059F05CBE0BD05C520DE15B52A7
:1008C0000BE15A50030808E303E15950D30804E34D
:1008D000020E646E828401D0656A03D0646A8294D9
:1008E00000D006EF05F08090652C01D080808092CA
:1008F0006550020801E180828190655201E18180AA
:1009000081928194819607EF05F06B6A81BE02D0D7
:10091000020E6B6E81AC6B2A66506B5C10E06BC094
:1009200066F06B5005E0010A04E0030A05E007D019
:1009300006D0010E656E03D0020E656E00D008EF82
:1009400005F0F86AD09E078EEA6AE96A700ED36EE7
:10095000400E9B6ED350C150C00B0F09C16E070EE5
:10096000B46E596A5A6A5B6A5C6A6390646A656AC3
:10097000666A676A686A696A700ED36E400E9B6E1B
:10098000D35080EF00F0BBEF00F00D0E6E6E8EDCEA
:1009900001C06AF06A502A0804E1020E6B6E6C6AAC
:1009A0001BD56A6A6A500F082DE36C6A5D0E6B6E88
:1009B000B5DD5F1E601E5F2AD8B4602A6E6A6D6A5C
:1009C00060C06CF05FC06BF060AE02D06D066E066A
:1009D000706A190E6EC074F06DC073F06CC072F066
:1009E0006BC071F070C076F0756E100E776E5FDEC2
:1009F00003C05CF002C05BF001C05AF000C059F0C7
:100A00006A2AD0D763A004D06390E2D66CD77DD792
:040A1000F9D703000F
:020000040030CA
:0E00000000C81E1E0087810000800FE00F4028
:00000001FF
;PIC18F2520
;CRC=2FB9  CREATED="30-Aug-12 18:44"
