:1000000000308A0004280000FF238316900000308F
:100010008A0057283230AC002C30840000080319C5
:100020001F280130A100A001A00B1428A10B132848
:100030004A30A000A00B1A281D28800B1128C930B7
:1000400083168500831285017C280408A10083168D
:100050000514831205182A280830A000AC01A01747
:100060004128A0134128031005180314AC0C2017D5
:1000700041282013A00B3328210884002C08A1005C
:100080005628013084000030A01B5530A100A10B80
:100090004728840B43280D30A01B0330A100A10B7F
:1000A0004F28A01B3128201B392833287F2803081C
:1000B0001F3983003F30A00021308400831380016A
:1000C000840AA00B5F28A00184011F3083058316DA
:1000D0008510831285141F1383161F109F101F1184
:1000E0009F11073083129900A501A601A701A8015D
:1000F000A901AA01AB010A280518C2282528210850
:10010000AB002B081F39053C031DC128AB1F9728E6
:100110002B1B9728AB1F0512AB1B05162B1F851237
:100120002B1B8516AB1E0511AB1A0515C128AB1B81
:10013000A8282B1FA828AB1F0512AB1B05162B1FC9
:1001400085122B1B8516AB1E0511AB1A0515C12890
:10015000AB1FB4282B1FB428051285128514AB1EC3
:100160000511AB1A0515C128AB1F0512AB1B0516EF
:100170002B1F85122B1B8516AB1E0511AB1A0515FF
:100180008510C728A630A000A00BC42800007C283A
:0201900063000A
:02400E0064301C
:00000001FF
;PIC12F675
