:020000040000FA
:04000000EFEF06F028
:08000800056ED8CF06F0E0CF31
:1000100007F00001E9CF0DF0EACF08F0E1CF09F0D9
:10002000E2CF0AF0D9CF0BF0DACF0CF0F3CF14F017
:10003000F4CF15F0FACF16F000C00FF001C010F0A9
:1000400002C011F003C012F004C013F09DA22CEF07
:1000500000F09EB24FEF00F00FC000F010C001F0B2
:1000600011C002F012C003F013C004F00E8E0DC0D8
:10007000E9FF08C0EAFF09C0E1FF0AC0E2FF0BC0C8
:10008000D9FF0CC0DAFF14C0F3FF15C0F4FF16C08F
:10009000FAFF055007C0E0FF06C0D8FF100062510C
:1000A000622B0F0803E2626BE581632B9E922CEFBB
:1000B00000F0EA6AEC0EE96EEF500DE0060E016EFC
:1000C000006A002EFED7012EFBD77B0E006E002E9D
:1000D000FED7EF2EF3D7000CEF6703D0F06702D006
:1000E00007D0F02BEEC0EEFFEF2FFCD7F02FFAD7A2
:1000F0008BEF00F0F2C0A9FFA69EA69CA680A8CF19
:1001000001F0A1EF00F0EA6A180EE96EEE6BF06BF9
:10011000120EEF6FE1D7ED6BEC6BED531CE1EC5180
:10012000110819E3EF6B180EEE6FEC51EE25016E1E
:10013000ED51EF21036E01C0F0F0F16FECC0F2F071
:10014000D9D7F1C0EAFFF0C0E9FF01C0EFFFEC2B07
:10015000D8B4ED2BE2D731EF01F00B0E1D6EB80EC7
:100160001C6E1F6A280E1E6E170E216E700E206EFA
:10017000010E276EF40E266E030E236EE80E226E1D
:10018000030E256EE80E246E030E296EE80E286E0F
:10019000010E196E500E186E1A6A1A8E1A8C1A8673
:1001A0001B6A1B8E1B8C35EF01F0F291F2BEF281BF
:1001B000F29EF0C0A9FFF1C0A8FFA69EA69CA6844F
:1001C000550EA76EAA0EA76EA682A6A201D0FDD7D5
:1001D000A694F29EF2B1F28E05EF01F0EC6BEC51B9
:1001E000110815E3EE6B180EED6FEC51ED25016E65
:1001F000000EEE21036E01C0E9FFEA6EEFCFEFF0D3
:10020000ECC0F0F0EFC0F1F0D0D7EC2BE8D7000C49
:10021000320EEC6F4EDFFF0E926EDF0E936E890E84
:10022000946EC290B990C19CC19E000EB86E830EB0
:10023000CD6ECF6ACE6A430EB76E886A876A000EAB
:100240000409CA6EFA0ECB6E94948B940C0EBD6E9C
:10025000BE6AFF0E806E816E400E826EAC9A948CE8
:1002600052D71850500805E078D7B8DF640EEC6F0D
:1002700020DFF19E81500F0B196EF18E436A426AA6
:10028000416A406A3F6A3E6A3D6A3C6A476A466A1A
:10029000456A446A2F6A2E6A2D6A2C6AC00EF212D1
:1002A0009D822EEF07F0EC5308E0980EB66E676A59
:1002B000666AFF0E656E646E05D0FF0E926E606A10
:1002C0009C0EB66E32EF07F0CF6ACE6A886A876AF4
:1002D0005F6A5E6A616B606B5D6A5C6A5B6A5A6AE0
:1002E000676A666A516A506A3F6A3E6A3D6A3C6A5A
:1002F0003B6A3A6A396A386A376A366A356A346AF2
:100300002B6A2A6A1A961A901A98000CFA6BF45102
:10031000FA25F56F000EF021F66F000EF121F76F50
:10032000000EF221F86FF3AF02D0F88F01D0F89FE2
:10033000F5C000F0F6C001F0F7C002F0F8C003F01D
:10034000000C036A03C0FFF0FBC0FEF0FAC0FDF032
:10035000F9C0FCF0FBAF02D0FF0EFF6FFCC000F055
:10036000FDC001F0FEC002F0FFC003F0000C51C060
:10037000EDF050C0ECF067CF51F066CF50F0505028
:10038000EC5DEE6F5150ED59EF6FF36BF26BF16F67
:10039000EEC0F0F0F46BBADF01C0F0F000C0EFF097
:1003A00000C000F001C001F0026A036A01AE02D091
:1003B00002060306005038260150392202503A2224
:1003C00003503B223BC0FBF03AC0FAF039C0F9F0D1
:1003D00038C0F8F0B6DF03C033F002C032F001C01D
:1003E00031F000C030F040EF07F0EF51F319800B0F
:1003F000F96FEFAF0BD0EC1FED1FEE1FEF1FEC2BD3
:10040000D8B4ED2BD8B4EE2BD8B4EF2BF3AF0BD080
:10041000F01FF11FF21FF31FF02BD8B4F12BD8B44B
:10042000F22BD8B4F32B006A016A026A036AF46BF8
:10043000F56BF66BF76BF351F211F111F0112CE043
:10044000200EF86FD890EC37ED37EE37EF37F437F2
:10045000F537F637F737F351F75D08E1F251F65DFE
:1004600005E1F151F55D02E1F051F45D0FE3F0516A
:10047000F45FF151D8A0F13DF55FF251D8A0F23D03
:10048000F65FF351D8A0F33DF75FD8800036013610
:1004900002360336F82FD6D7F9AF0BD0001E011E57
:1004A000021E031E002AD8B4012AD8B4022AD8B4E6
:1004B000032AEA6AF40EE96EDCEF02F01AA801D012
:1004C0008CD01AAE2FD03BC0FBF03AC0FAF039C046
:1004D000F9F038C0F8F035DF00502C5CEC6F0150BB
:1004E0002D58ED6F02502E58EE6F03502F58EF6FBE
:1004F000F36FEEC0F2F0EDC0F1F0ECC0F0F0F46B91
:1005000005DF03C047F002C046F001C045F000C05F
:1005100044F02FC055F02EC054F02DC053F02CC025
:1005200052F027D02FC0F3F02EC0F2F02DC0F1F022
:100530002CC0F0F0F46BEADE03C047F002C046F0D6
:1005400001C045F000C044F03BC0FBF03AC0FAF0F7
:1005500039C0F9F038C0F8F0F4DE2C500024526EA7
:100560002D500120536E2E500220546E2F50032028
:10057000556E3F6A3E6A3D6A3C6A47BE01D00DD067
:100580001B82441E451E461E471E442AD8B4452AD7
:10059000D8B4462AD8B4472A01D01B9247C0EFF0FE
:1005A00046C0EEF045C0EDF044C0ECF0F36BF26BEA
:1005B000F16B020EF06F19D703C047F002C046F08E
:1005C00001C045F000C044F0596A586A576A566A3B
:1005D0001B901A882B6A060E2A6EE1EF04F0CF6A90
:1005E000CE6A886A876A5F6A5E6A616B606B5D6A01
:1005F0005C6A5B6A5A6A3BC037F03AC036F039C071
:1006000035F038C034F01A8C1A961A901A98496A44
:10061000486A2B6A2A6A000C1A9480B41A841AA4B5
:1006200002D01AB602D01AA005D03F6A3E6A3D6ACF
:100630003C6AC7D12AC000F02B50036E03E1040EC0
:10064000005C25E0035004E1060E005CD8B4D8D06D
:10065000035004E10B0E005CD8B4A6D1035004E1B2
:10066000070E005CD8B4A4D1035004E1080E005C6E
:10067000D8B49FD1035004E1090E005CD8B49BD1DB
:10068000035004E10A0E005CD8B497D19AD11AB68F
:1006900002D01AB2B4D03FC0FBF03EC0FAF03DC069
:1006A000F9F03CC0F8F04DDE01C0EDF000C0ECF018
:1006B00001AE03D023AE0AD002D023BE3ED0ED510E
:1006C000235C3BE303E12250EC5D37E228503C26FB
:1006D00029503D22000E3E223F223FC0FBF03EC08B
:1006E000FAF03DC0F9F03CC0F8F02BDE01C0EDF0AF
:1006F00000C0ECF023AE03D0EDAF0AD002D0EDBFC6
:100700001BD02350ED5D18E303E1EC51225C14E2B1
:10071000F36BF26B23C0F1F022C0F0F0F1AF02D026
:10072000F207F307F46BF2DD03C03FF002C03EF0C6
:1007300001C03DF000C03CF051D03FC0FBF03EC0D6
:10074000FAF03DC0F9F03CC0F8F0FBDD01C0EDF07F
:1007500000C0ECF023AE03D0EDAF0AD002D0EDBF65
:100760003DD02350ED5D3AE303E1EC51225C36E2EB
:1007700028503C5E29503D5A000E3E5A3F5A3FC019
:10078000FBF03EC0FAF03DC0F9F03CC0F8F0D9DD16
:1007900001C0EDF000C0ECF001AE03D023AE0AD0F2
:1007A00002D023BE1BD0ED51235C18E303E122509D
:1007B000EC5D14E2F36BF26B23C0F1F022C0F0F0B9
:1007C000F1AF02D0F207F307F46BA0DD03C03FF0F6
:1007D00002C03EF001C03DF000C03CF03FC0FBF065
:1007E0003EC0FAF03DC0F9F03CC0F8F0AADD005080
:1007F0003426015035220250362203503722E1D0F0
:100800001AB602D01AB2CFD01BB066D03FC0FBF0F0
:100810003EC0FAF03DC0F9F03CC0F8F092DD01C0F6
:10082000EDF000C0ECF001AE03D025AE0AD002D04E
:1008300025BE0FD0ED51255C0CE303E12450EC5DA7
:1008400008E228503C2629503D22000E3E223F223D
:1008500008D0010E5626D8B0572AD8B4582AD8B492
:10086000592A3FC0FBF03EC0FAF03DC0F9F03CC051
:10087000F8F067DD0050445E0150455A0250465A78
:100880000350475A1BA212D03FC0FBF03EC0FAF003
:100890003DC0F9F03CC0F8F054DD0050345E01502A
:1008A000355A0250365A0350375A11D03FC0FBF028
:1008B0003EC0FAF03DC0F9F03CC0F8F042DD005017
:1008C000342601503522025036220350372247BECB
:1008D00001D001D01B8067D059BE12D0595207E118
:1008E000585205E1575203E15650000809E2FF0E45
:1008F0005626D8A05726D8A05826D8A059262ED09C
:100900003FC0FBF03EC0FAF03DC0F9F03CC0F8F04B
:1009100018DD01C0EDF000C0ECF0EC5302E1ED5346
:1009200008E028503C5E29503D5A000E3E5A3F5A7E
:1009300015D055C0F3F054C0F2F053C0F1F052C0DE
:10094000F0F0F46BE3DC03C037F002C036F001C016
:1009500035F000C034F01A982B6A2A6A1BA212D014
:100960003FC0FBF03EC0FAF03DC0F9F03CC0F8F0EB
:10097000E8DC0050345E0150355A0250365A0350BC
:10098000375A11D03FC0FBF03EC0FAF03DC0F9F03D
:100990003CC0F8F0D6DC005034260150352202501D
:1009A0003622035037220DD02B6A2A6A17DC09D071
:1009B00085D58ADC06D013DE04D01A9C2B6A2A6AFD
:1009C00000D042EF07F01AAC02D01AA001D033D009
:1009D0005FC0EDF05EC0ECF061C0EFF060C0EEF023
:1009E000CE505E6ECFCF5FF08750606F88CF61F0E2
:1009F000EC515E5CF06FED515F58F16FEE51605D50
:100A0000006EEF516159036E0050F05D006E0350AF
:100A1000F159036E005003C001F0026A036A01AE8F
:100A200002D00206030600505A2601505B220250F3
:100A30005C2203505D2243EF07F00101006B016B64
:100A4000010E026FDA6AD96A056BF80E046FEA6A62
:100A5000FC0EE96E05C1E2FF04C1E1FF02C103F132
:100A6000D890E550EE02F3500023F4500123032FF9
:100A7000F7D700C1DEFF01C100F1016BD8B0012B37
:100A8000042BD8B4052B022B02510508E0E100012C
:100A9000000C1AAC02D01AA001D026D15DC0F3F030
:100AA0005CC0F2F05BC0F1F05AC0F0F0F46B2EDCE9
:100AB00003C0EFF002C0EEF001C0EDF000C0ECF0BA
:100AC0003450EC25F06F3550ED21F16F3650EE21AA
:100AD000F26F3750EF21F36F3850F05DF46F3950FB
:100AE000F159F56F3A50F259F66F3B50F359F76FE1
:100AF000FB6FF6C0FAF0F5C0F9F0F4C0F8F021DCB5
:100B000001C04FF000C04EF01AB207D04E504C2634
:100B10004F504D22E86BE76B03D0E72BD8B4E82B9E
:100B20002650E75D04E12750E85DD8B41A80F36BE6
:100B3000F26B1DC0F1F01CC0F0F01DAE02D0F20748
:100B4000F3074EC000F04FC001F0026A036A4FAED7
:100B500002D00206030603C0F7F002C0F6F001C09F
:100B6000F5F000C0F4F0F3C0FBF0F2C0FAF0F1C011
:100B7000F9F0F0C0F8F003C0FFF002C0FEF001C0D1
:100B8000FDF000C0FCF059DF03C043F002C042F0AA
:100B900001C041F000C040F0F36BF26B1FC0F1F0F8
:100BA0001EC0F0F01FAE02D0F207F3074CC000F0F9
:100BB0004DC001F0026A036A4DAE02D00206030680
:100BC00003C0F7F002C0F6F001C0F5F000C0F4F089
:100BD000F3C0FBF0F2C0FAF0F1C0F9F0F0C0F8F0A9
:100BE00003C0FFF002C0FEF001C0FDF000C0FCF049
:100BF00024DF00504026015041220250422203507F
:100C00004322F36BF26B21C0F1F020C0F0F021AE73
:100C100002D0F207F3074A504E5C006E4B504F581B
:100C2000036E005003C001F0026A036A01AE02D0F5
:100C30000206030603C0F7F002C0F6F001C0F5F0AB
:100C400000C0F4F0F3C0FBF0F2C0FAF0F1C0F9F02C
:100C5000F0C0F8F003C0FFF002C0FEF001C0FDF0EC
:100C600000C0FCF0EADE0050402601504122025054
:100C700042220350432243C0F3F042C0F2F041C08D
:100C8000F1F040C0F0F0F3AF0BD0F33D02D0F2BF73
:100C900006D0FF0EF36F800EF26FF16BF06B0BD08E
:100CA000F35303E1F2517F0806E2F36B7F0EF26F1C
:100CB000FF0EF16FF06FF3C043F0F2C042F0F1C0ED
:100CC00041F0F0C040F0E62BE651020805E2E66B89
:100CD0004FC04BF04EC04AF041C040F042C041F01E
:100CE00041C049F040C048F044EF07F01AAC02D0D0
:100CF0001AA003D0496A486A29D01A92000B006EE4
:100D00004950800B036E0050031010E0485207E179
:100D10004950800804E1496A486A1A8205D0481E91
:100D2000491E482AD8B4492A828A01D0829A49BEEB
:100D30000DD0495002080AE2FF0A03E14850E708D3
:100D400005E2030E496EE80E486E1A8249C002F0B1
:100D500048C001F00232013202320132023201C0D7
:100D6000BEFF02320230300B006EBD50CF0B0010C0
:100D7000BD6E45EF07F081B809D0EA51640802E280
:100D8000EB6B03D0EA2B010EEB6F03D0EA6B010E85
:100D9000EB6F000EE5B3010EEB5D0DE0EB5302E1EE
:100DA0001A9C05D01AA002D064EC01F018DCE5937F
:100DB000EBB1E58303D01AA001D01A9C1AAC04D081
:100DC000948C828CE96B09D0E951640803E2948C1D
:100DD000828C03D0E92B949C829C46EF07F0F86A42
:100DE000D09E0D8EFE0E006E030E016E020EE96E99
:100DF000000EEA6EEE6A002EFDD7012EFBD7EA6ADE
:100E0000E96AB990C19CC19E000EB86E2A6A2B6A2D
:100E1000486A496A4A6A4B6A4C6A4D6A506A516A22
:100E2000526A536A546A556A566A576A586A596AC6
:100E30005A6A5B6A5C6A5D6A5E6A5F6A606B616B74
:100E4000626B636B646BE591E593E595E66BE76B2D
:100E5000E86BE96BEA6BEB6B08EF01F0010EEC6FEE
:100E600053EF01F064EC01F0C80EEC6F59EC00F0A8
:100E7000E59381A8E583E5A10BD0818AB7EF01F066
:100E80000CEF03F0A0D505D631D775D7E5910AD080
:100E900081AA08D0E5A505D0E5B303D0E595EEEC31
:080EA00000F0819AE8D703007D
:020000040030CA
:0E00000000C20E3E3C9D810000C00FE00F408C
:020000040020DA
:0800000006F00EF005F008F017
:00000001FF
;PIC18F2431
