:1000000000308A00BE280000FF00030E8301A60016
:100010007F08A5000A08AD008A01A50E0408A70004
:100020002008A8002108A9002208AA002308AB0084
:100030002408AC00831383128B1D20280B1833284F
:10004000270884002808A0002908A1002A08A20087
:100050002B08A3002C08A4002D088A00260E83007C
:10006000FF0E7F0E09008A1135280608AE000B101E
:100070000B108A11202832308400831300080319E2
:100080004E280630A100A001A00B4428A10B432854
:100090007B30A000A00B4A28800B4128003402309E
:1000A000B000FA30B2003B20B00B51281F10FF30D7
:1000B00083168500EF308600FF30870083128601AB
:1000C00060300317960003130608AE000B108B1563
:1000D0000317961603138B1503171617C030031357
:1000E0008B048A11D6280530B000B0080319AC285B
:1000F000861AAC2806160230B100FA30B2003B2056
:10010000B10B7D2806120230B1009630B2003B20C0
:10011000B10B852806160230B100FA30B2003B2040
:10012000B10B8D2806120230B1009630B2003B2090
:10013000B10B952806160430B100FA30B2003B200E
:10014000B10B9D2806120230B1009630B2003B2060
:10015000B10BA528B00375288A11E528B001300835
:100160003B3C031CBC280430B100FA30B2003B20F9
:10017000B10BB528B00AAF288A11F7288401831380
:100180001F30830503171F109F101F119F110313AA
:100190001F13003003179E0099019A0183169E01D8
:1001A00083129B0103138D12AF014F28061BEC280D
:1001B000AF08031DEC280430B000FA30B2003B2039
:1001C000B00BDD28061BEB287328061BEA2801303C
:1001D000AF00EB286300FB28861EF1280F30AF002C
:1001E000FB28861AFB28AF080319FA28AE2801302D
:0A01F000AF02FB286300D62863006D
:02400E00223C52
:00000001FF
;PIC16F690
;CRC=21C2  CREATED="04-Oct-09 10:41"
