:040000009AEF02F081
:08000800046ED8CF05F0E0CF33
:1000100006F00001E9CF0CF0EACF07F0E1CF08F0DD
:10002000E2CF09F0D9CF0AF0DACF0BF0F3CF12F01C
:10003000F4CF13F0FACF14F000C00EF001C00FF0AF
:1000400002C010F003C011F09DA22AEF00F09EB292
:1000500051EF00F0F2A630EF00F0F2B07BEF00F0CD
:100060000EC000F00FC001F010C002F011C003F08C
:100070000CC0E9FF07C0EAFF078E08C0E1FF09C016
:10008000E2FF0AC0D9FF0BC0DAFF12C0F3FF13C0B2
:10009000F4FF14C0FAFF045006C0E0FF05C0D8FF0B
:1000A00010002950292A310802E2296A17809E92FD
:1000B00030EF00F094968B9694988B988290476AD4
:1000C00047500F0805E3828682868296472AF8D732
:1000D000486A476A475007080AE3D890483682AA18
:1000E00001D04880828682868296472AF3D7828012
:1000F00048C001F0120081BA19D0DCDF01C046F01F
:100100004650520802E1246A01D0242A24500808EB
:1001100004E217820A0E246E09D0036A24501A0FD3
:10012000E96E000E0320EA6E46C0EFFF81CF46F075
:10013000F290F29030EF00F0EA6A2C0EE96EEF5088
:100140000DE00A0E016E006A002EFED7012EFBD7CD
:100150005F0E006E002EFED7EF2EF3D71200140EA6
:100160002C6EEADFC290C150C00B0F09C16EFC0EAD
:10017000926EF00E936EA00E946E806AE00E816E09
:10018000F80E826EF19E8282640E2C6ED5DF81CFD6
:100190002AF0F290CD6A480E0509CA6EC40ECB6EE5
:1001A0009D82F286C00EF2128186818481828180D6
:1001B00080828080020E2B6EAF0E2C6EBDDF2B2E48
:1001C000FBD7819681948192819080928090030EDA
:1001D0002B6EFA0E2C6EB0DF2B2EFBD7186AC4EFF5
:1001E00002F08296829694988B88020E006E002E02
:1001F000FED70000828682861FEF01F082968296EB
:1002000094988B98020E006E002EFED70000828616
:1002100082861FEF01F0100E3B6E94968B968290B3
:100220003B503B06000A0FE0000B006E3A50800B7B
:10023000036E0050031002E0D4D701D0DFD7D8906E
:1002400039363A36EDD782968280120082809498B1
:100250008B8894968B96800E3A6ED80E396EDBDFC3
:10026000820E3A6ED80E396ED6DFA60E3A6E400E6A
:10027000396ED1DFC60E3A6E470E396ECCDF940E62
:100280003A6EA00E396EC7DFC20E3A6EAC0E396EF2
:10029000C2DFCC0E3A6E770E396EBDDFCA0E3A6EF3
:1002A000800E396EB8DFCA0E3A6E830E396EB3DF38
:1002B000C40E3A6E9B0E396EAEDF980E3A6E500E3B
:1002C000396EA9DFE00E3A6E396AA5DFC80E3A6EC4
:1002D000396AA1DFC00E3A6E396A9DDFCA0E3A6EE6
:1002E000800E396E98DFCA0E3A6E830E396E93DF38
:1002F000166AF2BE168EF29EDDDE16BEF28EC5EFD7
:1003000002F0265203E1276A81B8272A1850010A11
:1003100005E0030A14E0020A23E024D0265009086D
:100320000BE3262A1850285C06E018C028F08294B7
:10033000275201E1828402D0186A266A13D026501F
:1003400009080BE3262A1850285C06E018C028F09C
:1003500027A0829427B0828402D0186A266A02D02D
:100360008294266AC9EF02F08190182C01D0818016
:100370008192185201E1818281941850020801E1B2
:1003800081848196CAEF02F02A6A81BE02D0020EF1
:100390002A6E81BC01D02A2A25502A5C11E02AC08D
:1003A00025F0809280902A5005E0010A04E0030ABB
:1003B00005E006D005D0010E186E02D0020E186EB0
:1003C000CBEF02F03D683C683B503B06000A27E05B
:1003D0003A50036E3950392AD8B43A2AE96E03C02C
:1003E000EAFFEFCF3EF03EC03FF0406A40500708C2
:1003F00015E33F503C18426E4250010B4190E8B06B
:100400004180D8903D323C3241A004D0010E3C1ACC
:10041000A00E3D1AD8903F32402AE8D7D5D73CC02D
:1004200001F03DC002F04EEF02F017A281D02A6A1F
:100430002A5007081BE3036A2A502F0F016E000E93
:10044000032201C039F003C03AF0036A2A501A0FA0
:10045000E96E000E0320EA6EEFCF3BF03AC0EAFFF0
:1004600001C0E9FF3BC0EFFF2A2AE2D7CA0E3A6E6D
:10047000800E396ED0DECA0E3A6E830E396ECBDE38
:10048000166AF2BE168EF29E15DE16BEF28E179218
:100490003A6A2F0E396E060E3B6E94D702C02EF0CC
:1004A00001C02DF02DC02BF02EC02CF03050A00834
:1004B00021E1315030081EE13250B0081BE13350C9
:1004C000320818E12B50355C15E12C50365C12E1F6
:1004D0003450310A03E0030A06E00AD0809080829B
:1004E000020E186E07D080808092010E186E02D026
:1004F000809080922A6A2A5007081AE3036A2A50D9
:100500002F0F016E000E032201C039F003C03AF034
:10051000036A2A501A0FE96E000E0320EA6EEF6A92
:10052000000E3AC0EAFF01C0E9FFEF6E2A2AE3D7C6
:10053000CCEF02F0F86AD09E078E700ED36E400E9C
:100540009B6ED350286AC150C00B0F09C16E070EB5
:10055000B46E1790179217901792186A196A1A6A50
:100560001B6A1C6A1D6A1E6A1F6A206A216A226A47
:10057000236A246A256A266A276A296A700ED36E5E
:10058000400E9B6ED350EBD561D617A004D01790C8
:0C059000B8D6EAD6F9D649D7F8D7FFD77D
:020000040030CA
:0E00000000C8191E008700000FC00FE00F405F
:00000001FF
;PIC18F2520
;CRC=77BC  CREATED="02-Jun-13 23:27"
