:1000000000308A0004280000FF238316900000308F
:100010008A00302827308400000803191D28013089
:10002000A100A001A00B1228A10B11284A30A000AA
:10003000A00B18281B28800B0F2800343230A70093
:100040000A20183083168500831285010515643057
:10005000A7000A2005118514A510051AA5144C281F
:1000600003081F3983003F30A00021308400831330
:100070008001840AA00B3828A00184011F30830569
:100080001F1383161F109F101F119F11073083121B
:1000900099002510A6011E281430A7000A20251C4F
:1000A000662805150130A6072608013A03195F28BE
:1000B000333A03196128793A0319632865288510B2
:1000C000652885146528A601652869280511851409
:1000D000A601A001A518201605082006103903194D
:1000E0007828A510051AA514051A78280130A50648
:0400F0004C28630035
:02400E0064301C
:00000001FF
;PIC12F675
