:020000040000FA
:04000000DCEF00F041
:08000800056ED8CF06F0E0CF31
:1000100007F00001E9CF0DF0EACF08F0E1CF09F0D9
:10002000E2CF0AF0D9CF0BF0DACF0CF0F3CF14F017
:10003000F4CF15F0FACF16F000C00FF001C010F0A9
:1000400002C011F003C012F004C013F09DA22CEF07
:1000500000F09EB255EF00F09DAA32EF00F09EBA7C
:1000600058EF00F00FC000F010C001F011C002F016
:1000700012C003F013C004F00DC0E9FF08C0EAFF8E
:10008000088E09C0E1FF0AC0E2FF0BC0D9FF0CC017
:10009000DAFF14C0F3FF15C0F4FF16C0FAFF0550D5
:1000A00007C0E0FF06C0D8FF10009E9232EF00F0BC
:1000B0009EAA16D0AB50060B02E0AB98AB88AECF31
:1000C00063F01892036A2050220FE96E000E03209D
:1000D000EA6E63C0EFFF202A20503F0801E2206A49
:1000E0009E9A32EF00F01882196AFF0E1A6E1B6E8C
:1000F0001F6E1E6E189082500F0B1D6EC00EF212F6
:100100009D829D8A39EF01F018A204D0FF0E1F6E68
:100110001E6E16D0036A2150220FE96E000E0320D6
:10012000EA6EEF50036A1E6E03C01FF0212A2150B1
:100130003F08D8A0216A18922150205C01E1188262
:10014000A4EF00F01890E0D71F5234E11E50F708DA
:1001500031E31E50F70805E11F5203E11896196AB2
:1001600029D01E50F00802E11F5202E018A603D069
:100170001886196A1FD01F5203E11E507F0804E23F
:100180001EC019F0189416D018A405D018941EC0DB
:100190001BF018800FD019520DE01950BF0807E26C
:1001A0001950DF0804E31EC01CF0188003D0188427
:1001B0001EC01AF03AEF01F0F86AD09E088EEA6A83
:1001C000E96A090EAF6EA20EAC6E900EAB6EC180E6
:1001D000C182C184C1961890189218941896196A11
:1001E0001A6A1B6A1C6A1D6A1E6A1F6A206A216AD3
:1001F000226A236A246A256A266A276A286A296A83
:100200002A6A2B6A2C6A2D6A2E6A2F6A306A316A32
:10021000326A336A346A356A366A376A386A396AE2
:100220003A6A3B6A3C6A3D6A3E6A3F6A406A416A92
:10023000426A436A446A456A466A476A486A496A42
:100240004A6A4B6A4C6A4D6A4E6A4F6A506A516AF2
:10025000526A536A546A556A566A576A586A596AA2
:100260005A6A5B6A5C6A5D6A5E6A5F6A606A616A52
:100270003AD768D718A00ED019500F0B1D5C0AE1B1
:100280001950F00B800A03E0100A02E002D002D0FD
:0802900001D000D0EED70300FD
:020000040030CA
:0E00000000220C0E000101000FC00FE00F40A7
:00000001FF
;PIC18F452
;CRC=2CB3  CREATED="17-Aug-09 23:02"
