:1000000000308A0004280000FF238316900000308F
:100010008A004D283230AE002E30840000080319CB
:100020001F280130A100A001A00B1428A10B132848
:100030004A30A000A00B1A281D28800B1128FE3082
:10004000831685008312722883160510831205100B
:100050000830A1002B280000A1173C28A113AE0CEA
:1000600003180514031C051021173C282113A10BAC
:100070002F283A28000005140130A0008401840BC9
:100080003F28A00B3E280E308400840B452800003A
:10009000A11B2E28211B3628B42803081F398300F2
:1000A0003F30A0002130840083138001840AA00B1C
:1000B0005528A00184011F30830583160510831283
:1000C00005141F1383161F109F101F119F11073057
:1000D00083129900A501A601A701A801A901AA01FF
:1000E000AB010A28AD01AC012D080F3C031C95287B
:1000F000031D7E282C089F3C031C9528051A832885
:10010000A50A0319A60A851A8828A70A0319A80AA6
:1001100005198D28A90A0319AA0A2130A000A00BED
:100120008F28AC0A0319AD0A7428AB13A608031D67
:100130009C282508643C031CAB172B13A808031D3F
:10014000A4282708643C031C2B17AB12AA08031D24
:10015000AC282908643C031CAB16E0302B0505389D
:10016000AB002B08AE002428AA01A9012A08A80088
:100170002908A7002808A6002708A5007228630000
:02400E0064301C
:00000001FF
;PIC12F675
